:100000000C94D9030C9401040C9401040C94010485
:100010000C9401040C9401040C9401040C9401044C
:100020000C9401040C9401040C9401040C9401043C
:100030000C9401040C9401040C9401040C9401042C
:100040000C94DB0D0C9401040C9401040C94010439
:100050000C9401040C9401040C9401040C9401040C
:100060000C94250E0C9401040000000024002700CD
:100070002A0000000000250028002B00AAAAAA4A96
:10008000A0A4404A405375626D6172696E655175F6
:10009000657374005375626D6172696E6551756543
:1000A000737420202020202041726475696E6F20B7
:1000B00067616D652062792050657472204B7261B2
:1000C00074696E61203C706574722E6B7261746924
:1000D0006E6140676D61696C2E636F6D3E202020FC
:1000E00020202048656176696C7920696E7370699B
:1000F000726564206279205365615175657374205F
:10010000666F72204174617269203236303020206F
:100110002020202047616D652C206974277320738F
:100120006F75726365732028696E636C7564696EA0
:10013000672067726170686963732920616E64204B
:10014000696E737472756374696F6E20686F77205F
:10015000746F20617373656D626C6520796F757261
:10016000206F776E20636F6E736F6C6520617265B0
:1001700020617761696C61626C65206174206874CC
:1001800074703A2F2F61726475696E6F2E6461729C
:100190006B796F726B2E636F6D2F7375626D617209
:1001A000696E652D71756573742F0020307DFF7D3C
:1001B0000000000000040E78102000000020701ED7
:1001C000080400000008DC7ADC00000000103B5E40
:1001D0003B000000040CBEFFFDBE000020307DFF90
:1001E000BF7D0008000C000C007FA0FFE09FE07FB7
:1001F000A00000020006000600BFC0FFE0FF20BF15
:10020000C000000800500A026C483C0C347C743C6E
:1002100034341841626F75740048692D73636F72CE
:10022000650053746172742067616D650053636F7C
:1002300072653A004E65772048692D53636F726589
:100240003A0047414D45204F564552004261636B8D
:1002500020746F206D656E750052657365743F0084
:1002600048692D53636F72653A0000000000003E3C
:100270005B4F5B3E3E6B4F6B3E1C3E7C3E1C183C16
:100280007E3C181C577D571C1C5E7F5E1C00183C72
:100290001800FFE7C3E7FF0018241800FFE7DBE7BB
:1002A000FF30483A060E2629792926407F050507A2
:1002B000407F05253F5A3CE73C5A7F3E1C1C0808FE
:1002C0001C1C3E7F14227F22145F5F005F5F0609C3
:1002D0007F017F006689956A606060606094A2FF1C
:1002E000A29408047E040810207E201008082A1C0E
:1002F00008081C2A08081E101010100C1E0C1E0CDA
:1003000030383E3830060E3E0E0600000000000079
:10031000005F00000007000700147F147F14242AE8
:100320007F2A1223130864623649562050000807BA
:100330000300001C2241000041221C002A1C7F1CDB
:100340002A08083E080800807030000808080808DD
:10035000000060600020100804023E5149453E0044
:10036000427F400072494949462141494D331814A2
:10037000127F1027454545393C4A494931412111F1
:1003800009073649494936464949291E00001400E3
:100390000000403400000008142241141414141406
:1003A000004122140802015909063E415D594E7C64
:1003B0001211127C7F494949363E414141227F4119
:1003C00041413E7F494949417F090909013E414177
:1003D00051737F0808087F00417F41002040413F62
:1003E000017F081422417F404040407F021C027F71
:1003F0007F0408107F3E4141413E7F090909063EC6
:100400004151215E7F091929462649494932030194
:100410007F01033F4040403F1F2040201F3F4038A6
:10042000403F631408146303047804036159494D81
:1004300043007F4141410204081020004141417FB7
:10044000040201020440404040400003070800202D
:10045000545478407F28444438384444442838442D
:1004600044287F385454541800087E090218A4A464
:100470009C787F0804047800447D40002040403D83
:10048000007F1028440000417F40007C04780478FD
:100490007C080404783844444438FC182424181890
:1004A000242418FC7C0804040848545454240404EC
:1004B0003F44243C4040207C1C2040201C3C4030D9
:1004C000403C44281028444C9090907C4464544C08
:1004D0004400083641000000770000004136080063
:1004E00002010204023C2623263C1EA1A161123A0D
:1004F0004040207A38545455592155557941225459
:10050000547842215554784020545579400C1E525D
:100510007212395555555939545454593955545402
:10052000580000457C410002457D420001457C4069
:100530007D1211127DF0282528F07C5455450020AD
:1005400054547C547C0A097F4932494949323A441F
:1005500044443A324A4848303A4141217A3A42408A
:100560002078009DA0A07D3D4242423D3D4040405C
:100570003D3C24FF2424487E4943662B2FFC2F2B2F
:10058000FF0929F620C0887E0903205454794100D0
:1005900000447D413048484A32384040227A007A4F
:1005A0000A0A727D0D19317D2629292F282629292D
:1005B000292630484D40203808080808080808084F
:1005C000382F10C8ACBA2F102834FA00007B000076
:1005D00008142A142222142A14085500550055AA7A
:1005E00055AA55AAFF55FF55FF000000FF00101047
:1005F00010FF00141414FF001010FF00FF1010F083
:1006000010F0141414FC001414F700FF0000FF0095
:10061000FF1414F404FC141417101F10101F101FE3
:100620001414141F00101010F0000000001F101010
:1006300010101F10101010F010000000FF1010100C
:10064000101010101010FF10000000FF140000FF29
:1006500000FF00001F10170000FC04F41414171012
:10066000171414F404F40000FF00F7141414141405
:100670001414F700F7141414171410101F101F147B
:100680001414F4141010F010F000001F101F0000DC
:10069000001F14000000FC140000F010F01010FF08
:1006A00010FF141414FF141010101F00000000F0AD
:1006B00010FFFFFFFFFFF0F0F0F0F0FFFFFF000082
:1006C000000000FFFF0F0F0F0F0F3844443844FCA9
:1006D0004A4A4A347E02020606027E027E026355C0
:1006E0004941633844443C04407E201E2006027E7B
:1006F000020299A5E7A5991C2A492A1C4C7201728D
:100700004C304A4D4D303048784830BC625A463DF6
:100710003E494949007E0101017E2A2A2A2A2A44AB
:10072000445F444440514A444040444A51400000E0
:10073000FF0103E080FF000008086B6B08361236EB
:100740002436060F090F06000018180000001010CC
:10075000003040FF0101001F01011E00191D17128A
:10076000003C3C3C3C000000000000000000230076
:100770002600290004040404040404040202020202
:100780000202030303030303010204081020408054
:1007900001020408102001020408102000000008D3
:1007A0000002010000030407000000000000000038
:1007B000B71C11241FBECFEFD8E0DEBFCDBF15E0C0
:1007C000A0E0B1E0E8E0F1E402C005900D92AE35A2
:1007D000B107D9F726E0AEE5B5E001C01D92A83615
:1007E000B207E1F713E0C9EDD3E004C02197FE01A1
:1007F0000E941C1DC83DD107C9F70E945A120C94D3
:1008000082200C940000CF92DF92EF92FF920F9320
:100810001F93CF93DF936C017A018B01C0E0D0E08E
:10082000CE15DF0589F0D8016D918D01D601ED91CE
:10083000FC910190F081E02DC6010995892B11F4FE
:100840007E0102C02196ECCFC701DF91CF911F91AD
:100850000F91FF90EF90DF90CF9008953FB7F894FD
:100860008091DB059091DC05A091DD05B091DE055E
:1008700026B5A89B05C02F3F19F00196A11DB11DFB
:100880003FBFBA2FA92F982F8827820F911DA11D36
:10089000B11DBC01CD0142E0660F771F881F991F73
:1008A0004A95D1F708950F931F93CF93DF93DC01FF
:1008B00055968C915597823071F0833009F18130D3
:1008C00009F08CC01496ED91FC911597E41BF50B83
:1008D000E21BF30B20C01496ED91FC911597CF010C
:1008E000861B970BBC01615071091696ED91FC9126
:1008F0001797CF01841B950BAC01421B530B6EC0A5
:100900001696ED91FC911797CF01861B970BBC01B2
:1009100061507109FA0177FD1BC116968D919C916A
:100920001797681779070CF013C1F7FF04C02E0F53
:100930003F1FE0E0F0E014968D919C911597AF0178
:10094000420F531F841795071CF49C012E1B3F0B6D
:10095000121613060CF0FCC0CB0177FD079643E09E
:10096000959587954A95E1F79695982F88279795BD
:100970008795E80FF91FE75FFE4F6770772781E0E3
:1009800090E001C0880F6A95EAF7482F0130110501
:1009900041F088F00230110509F0DAC02E0F3F1F38
:1009A00015C02E0F3F1FE217F30709F4D1C0808155
:1009B000842B8193F8CF80952E0F3F1FE217F3070A
:1009C00009F4C6C0908198239193F8CFE217F307FA
:1009D00009F4BEC0808184278193F8CF77FDB8C029
:1009E00014968D919C911597681779070CF0B0C0FB
:1009F00057FF04C0240F351F40E050E016968D913C
:100A00009C911797FA01E20FF31F8E179F071CF4B2
:100A10009C01241B350B121613060CF099C0A22F53
:100A2000842F86958695869590E8899F600D711D27
:100A30001124FB01E75FFE4F4770A9F198E0941B7A
:100A4000492F50E0EA01CA5DDA4F8881291790F4F6
:100A5000421B51092FEF30E002C0359527954A958A
:100A6000E2F782230130110541F068F002301105F0
:100A700089F06EC00130110519F42081822B0CC061
:100A80000130110520F480952081822305C00230B9
:100A9000110531F4208182278083A91708F458C0FA
:100AA000A91BE058FF4FA83048F10230110559F456
:100AB000EF018A2F988190959883C058DF4F885016
:100AC0008830C0F730C081E00130110509F080E0C6
:100AD0008195EF019A2F8883C058DF4F9850983046
:100AE000D0F788EF8A0F86958695869590E8899F3E
:100AF000E00DF11D1124E058FF4FA770AA2341F12A
:100B0000B0E0A25EBA4F8C910130110529F038F0A7
:100B100002301105D1F01CC09081892B18C080953E
:100B20009081892314C088EF8A0F869586958695D3
:100B300090E8899FE00DF11D1124E058FF4FA77048
:100B400039F0B0E0A25EBA4F8C9190818927808302
:100B5000DF91CF911F910F9108950F931F93CF9322
:100B6000DF93DC01FB0155968C915597823081F023
:100B7000833019F1813051F514968D919C91159720
:100B8000BC01641B750BAB0141505109BF0181C011
:100B900014966D917C911597CB018E1B9F0BFC01D8
:100BA00016968D919C911797BC01641B750BAB0138
:100BB00041505109E21BF30B09C016966D917C91CF
:100BC00017976E1B7F0B621B730B63C057FD1CC115
:100BD00016968D919C911797481759070CF014C1E0
:100BE000F7FF04C02E0F3F1FE0E0F0E014968D9158
:100BF0009C911597BF01620F731F861797071CF40E
:100C00009C012E1B3F0B121613060CF0FDC0CA01EF
:100C100057FD079663E0959587956A95E1F7969558
:100C2000982F882797958795E80FF91FE75FFE4F64
:100C30004770552781E090E001C0880F4A95EAF798
:100C4000482F0130110541F088F00230110509F0FC
:100C5000DBC02E0F3F1F15C02E0F3F1FE217F307FB
:100C600009F4D2C08081842B8193F8CF80952E0F18
:100C70003F1FE217F30709F4C7C0908198239193AF
:100C8000F8CFE217F30709F4BFC08081842781936E
:100C9000F8CF57FDB9C014968D919C9115974817C0
:100CA00059070CF0B1C077FF04C0260F371F60E072
:100CB00070E016968D919C911797FB01E20FF31F40
:100CC0008E179F071CF49C01261B370B1216130668
:100CD0000CF09AC0A22F862F86958695869590E86F
:100CE000899F400D511D1124FA01E75FFE4F677087
:100CF000A9F198E0961B492F50E0EA01CA5DDA4F4E
:100D00008881291790F4421B51092FEF30E002C06F
:100D1000359527954A95E2F782230130110541F078
:100D200068F00230110589F06FC00130110519F427
:100D30002081822B0CC00130110520F48095208188
:100D4000822305C00230110531F42081822780837F
:100D5000A91708F459C0A91BE058FF4FA83048F163
:100D60000230110559F4EF018A2F988190959883EC
:100D7000C058DF4F88508830C0F731C081E0013063
:100D8000110509F080E08195EF019A2F8883C05802
:100D9000DF4F98509830D0F788EF8A0F8695869568
:100DA000869560E8869FE00DF11D1124E058FF4F05
:100DB000A770AA2349F1B0E0A25EBA4F8C9101302E
:100DC000110529F038F002301105D9F01DC09081CD
:100DD000892B03C0809590818923808315C088EF7B
:100DE0008A0F86958695869570E8879FE00DF11DA0
:100DF0001124E058FF4FA77039F0B0E0A25EBA4F5F
:100E00008C9190818927E9CFDF91CF911F910F912C
:100E10000895FC0177FD9AC0808591856817790750
:100E20000CF094C057FD92C08285938548175907EE
:100E30000CF08CC08589823009F07CC0848195815A
:100E4000DC01A61BB70BBD0161507109868197813A
:100E5000FC01E41BF50BAF01415051090AC0813080
:100E600041F484819581841B950BAB01BC016150D9
:100E700071092130310529F008F122303105E1F105
:100E80000895FA0157FD3796A3E0F595E795AA95E1
:100E9000E1F7F695FE2FEE27F795E7956E0F7F1F8A
:100EA000FB01E75FFE4F4770552781E090E001C0EE
:100EB000880F4A95EAF79081892B3AC0FA0157FDCD
:100EC000379623E0F595E7952A95E1F7F695FE2FFD
:100ED000EE27F795E7956E0F7F1FFB01E75FFE4F4B
:100EE0004770552781E090E001C0880F4A95EAF7E6
:100EF0008095908189231CC0FA0157FD379683E0C5
:100F0000F595E7958A95E1F7F695FE2FEE27F7958B
:100F1000E7956E0F7F1FFB01E75FFE4F4770552778
:100F200081E090E001C0880F4A95EAF79081892717
:100F300080830895833009F092CF86819781861B44
:100F4000970BBA01AC014150510993CF0895089510
:100F50002F923F924F925F926F927F928F929F92C9
:100F6000AF92BF92CF92DF92EF92FF920F931F93B7
:100F7000CF93DF93CDB7DEB76B970FB6F894DEBF94
:100F80000FBECDBF4C015A8349831F830E83FD8260
:100F9000EC82CB82DC0158964D915C9159974115BA
:100FA000510509F0A5C018968D919C911997681765
:100FB00079070CF05AC11A968D919C911B97E98183
:100FC000FA81E817F9070CF050C1D12CCB013B8115
:100FD000F6E03F9F800D911D1124181619060CF0A4
:100FE00044C1C60133E0880F991F3A95E1F7498162
:100FF0005A81840F951F181619060CF036C15796A2
:101000008C91811103C0203B08F02F5F55E0259F94
:10101000900111247E876D875B01212CC901861BFD
:10102000970B99878887A981BA811896BB87AA8769
:10103000B5E02B1641F0E885F985EA0DFB1DE65970
:10104000FD4F349001C0312C69807A80230130FE3D
:1010500012C0D401ED91FC91BB81B13031F4048018
:10106000F581E02D2E813F8118C00684F785E02DA3
:10107000EE80FF801CC0EC81FD812E813F81E21754
:10108000F307E1F0D401ED91FC91BB81B13051F453
:101090000480F581E02D2C813D81A301B501C401BF
:1010A00009950CC00684F785E02DEC80FD80860153
:1010B0009601A2016D857E85C40109953694EFEFF6
:1010C0006E1A7E0A4C0C5D1C2A853B8562167306DF
:1010D00009F0BDCF23943FEFA31AB30A4D855E8577
:1010E0004C0D5D1D5E874D8756E02512A1CFBDC01A
:1010F000FA0134963491329785919491231BA7E09D
:101100002A9F800D911D1124FA01259134913A8B6B
:10111000298BFC0125903490FC013296349138875C
:10112000319644914C873196E491FC013596A49117
:10113000319684915B81523050F06A2E0A2E000C59
:101140007708E82F082E000CFF0BFB87EA87FB814E
:10115000CF2ED12C6C9C90016D9C300D7C9C300D61
:101160001124A901460F571F588B4F871C82A12CB1
:10117000EA2FAA0FFF0B3B016E0E7F1E5885650FED
:10118000711DDB01AE0FBF1FBF8BAE8BE981FA81F2
:10119000E80FF11D87FDFA95F98FE88F9C85A91658
:1011A00008F063C08A2D90E04A855B85480F591F7F
:1011B0004C9D90014D9D300D5C9D300D1124A981F9
:1011C000BA81A20FB31FBE87AD877B8E6A8E4F8414
:1011D0005888BC81B619BB8BE88DF98DE80FF91FD3
:1011E000FD8BEC8B8B89FA8D8F0F2A8D3B8D4E8971
:1011F0005F892417350799F1877041F4C101019681
:10120000E989FA89E20DF31DB4901C01B7FE1EC0F6
:10121000D401ED91FC91BB81B13061F40480F58182
:10122000E02D2E813F814C895D896A8D7B8DC401C3
:1012300009950CC00684F785E02DEE80FF808601BD
:1012400096014D855E85B201C4010995BB0CEA8DFE
:10125000FB8D3196FB8FEA8F4C0C5D1CC3CF5C81FC
:101260008885580F5C83A39499CF6B960FB6F8943A
:10127000DEBF0FBECDBFDF91CF911F910F91FF90C9
:10128000EF90DF90CF90BF90AF909F908F907F9026
:101290006F905F904F903F902F900895AF92BF92C4
:1012A000CF92EF92FF920F931F93CF93DF93EC01B6
:1012B000262F888D998D009709F042C06A3069F415
:1012C0002C898E859F8538E0239F800D911D1124E8
:1012D0009F878E871D861C86ACC06D3009F4A9C01F
:1012E0008E898823C1F03C898C859D8546E0349F9A
:1012F000800D911D112448855985841795075CF050
:101300001D861C868E859F85E8E03E9F800D911D81
:1013100011249F878E87EA88FB88088919894E8562
:101320005F856C857D85CC88CE010E94A8072C89BD
:101330008C859D85F6E02F9F800D911D112441C065
:101340006A3079F41D861C862C89FC013696E4915E
:101350008E859F852E9F800D911D11249F878E87DE
:1013600068C06D3009F465C0AC014C5F5F4FFA0195
:101370003491631708F45DC03196E491E61708F4E0
:1013800058C0FA014491362F341BFC013296A590C7
:10139000B490F7E03F9FA00CB11C1124F5013296E8
:1013A00034913196E491332311F0E1110DC0F50130
:1013B0003496E4912C898C859D85E29F800D911D4A
:1013C00011249D878C8735C0F501359644915E893F
:1013D000552311F16C89E32FF0E0E40FF11D47FD77
:1013E000FA956E9FD0016F9FB00D11244C855D85DD
:1013F0004A0F5B1FE885F9854E175F076CF01D8665
:101400001C86FC013696E4918E859F856E9F800D2B
:10141000911D11249F878E87EA88FB880889198986
:101420004E855F856C857D85CC88CE010E94A8079E
:10143000BECF81E090E0DF91CF911F910F91FF909F
:10144000EF90CF90BF90AF900895EF92FF920F93DF
:101450001F93DC01ED91FC9111971A960D911C914F
:101460001B9718962D913C9119970684F785E02DCE
:101470007B0140E050E060E070E009951F910F9122
:10148000FF90EF9008956F927F928F929F92AF920C
:10149000BF92CF92DF92EF92FF920F931F93CF9361
:1014A000DF936C015A014801EB013B01620E731E90
:1014B000C615D70574F4D601ED91FC910084F18531
:1014C000E02D87019401A501BE01C6010995219671
:1014D000EFCFDF91CF911F910F91FF90EF90DF90B1
:1014E000CF90BF90AF909F908F907F906F90089516
:1014F000EF92FF920F931F93DC01ED91FC91260F69
:10150000371F215031090680F781E02D78018A01CB
:1015100009951F910F91FF90EF900895EF92FF9220
:101520000F931F937801DC01ED91FC91240F351F7F
:101530008901015011090680F781E02D9B01099571
:101540001F910F91FF90EF9008956F927F928F926D
:101550009F92AF92BF92CF92DF92EF92FF920F9342
:101560001F93CF93DF93EC014B015A0169013801BE
:10157000E881F9810284F385E02D87010995E881EE
:10158000F981A501460D571D415051090284F3858B
:10159000E02D9601B401CE010995E881F98100841E
:1015A000F185E02D9301A501B401CE010995E881F3
:1015B000F981C80CD91CB601615071090084F1850C
:1015C000E02D9301A501CE010995DF91CF911F91E7
:1015D0000F91FF90EF90DF90CF90BF90AF909F90D2
:1015E0008F907F906F9008952F923F924F925F92CD
:1015F0006F927F928F929F92AF92BF92CF92DF9223
:10160000EF92FF920F931F93CF93DF9300D01F921F
:10161000CDB7DEB74C017B836A836A01590117019C
:101620009801241B350B37FF03C0319521953109F3
:10163000C5014A815B81841B950B97FF03C091957F
:101640008195910951E059838217930714F019820B
:101650000BC09A2D8B2D5801092F182F9A818B8141
:10166000DB82CA82C92ED82E8A819B81A816B90630
:101670005CF49C2D8D2D6801092F182F9A818B8188
:10168000BB82AA82A92EB82E2501AA81BB814A1A43
:101690005B0A38016C187D0877FE03C07194619471
:1016A0007108720157FE03C0BFEFEB1AFB0AF594F5
:1016B000E794C016D1061CF00FEF1FEF1FC001E02A
:1016C00010E01CC0D401ED91FC91B9810480F5813A
:1016D000E02D9101BB23C1F04A815B81B601C401B9
:1016E0000995E618F708F7FE04C0C00ED11EE40CF9
:1016F000F51CEA81FB813196FB83EA834A815B8199
:10170000A416B506FCF604C0A6016A817B81E7CF6A
:101710000F900F900F90DF91CF911F910F91FF903D
:10172000EF90DF90CF90BF90AF909F908F907F9081
:101730006F905F904F903F902F90089585ED80932C
:10174000BC008091BC0084FDFCCF1092050608957A
:101750004091B105262F30E0240F311D2132310593
:10176000DCF4209105062430C9F4FC0180E090E00F
:10177000861758F43091B1052191DC01A157BA4F79
:10178000A30FB11D2C930196F3CF8091B105680F83
:101790006093B10580E0089581E0089582E00895A6
:1017A000089581E090E030915F0520915E05321749
:1017B00010F480E090E091958195910908958091D1
:1017C0005F0590915E05891730F48F5F80935F0508
:1017D00080E090E008958FEF9FEF089580915E057F
:1017E00090E020915F05821B91090895CF92DF92CE
:1017F000EF92FF920F931F93CF93DF937C01262FDD
:10180000972F8A0180910606882391F0C62FD72F43
:101810006E01C40ED51ECC15DD0571F06991D7019E
:10182000ED91FC910190F081E02DC7010995F3CF76
:10183000642F822F0E94A80BC801DF91CF911F91C6
:101840000F91FF90EF90DF90CF900895CF93DF93AB
:101850001F92CDB7DEB76983209106062223D1F00F
:1018600020912806203240F021E030E0FC01338353
:10187000228380E090E015C080910706E82FF0E019
:10188000E85FF94F998190838F5F8093070680937B
:10189000280605C061E0CE0101960E94A80B81E0F8
:1018A00090E00F90DF91CF9108950E94191F0F9340
:1018B0001F93CF93DF93EC0188819981009729F0E2
:1018C0002A813B812617370788F48B016F5F7F4F92
:1018D0000E944F1E009761F0998388831B830A83BF
:1018E0002C813D81232B11F4FC01108281E001C089
:1018F00080E0DF91CF911F910F910895CF93DF93F7
:10190000EC0188819981009711F00E94B71D19821E
:1019100018821D821C821B821A82DF91CF9108954A
:10192000EF92FF920F931F93CF93DF93EC017B0114
:101930008A01BA010E94570C811104C0CE010E9495
:101940007E0C07C01D830C83B701888199810E949A
:10195000271FCE01DF91CF911F910F91FF90EF9044
:101960000895EF92FF920F931F93CF93DF93CDB71C
:10197000DEB761970FB6F894DEBF0FBECDBF8C0106
:10198000CB01F80111821082138212821582148217
:1019900050E09E012F5F3F4F7901B9010E948A1FDD
:1019A000F70101900020E9F73197AF014E195F0967
:1019B000B701C8010E94900C61960FB6F894DEBF83
:1019C0000FBECDBFDF91CF911F910F91FF90EF9090
:1019D0000895833081F028F4813099F08230A1F0AD
:1019E00008958730A9F08830B9F08430D1F480911F
:1019F00080008F7D03C0809180008F77809380006E
:101A0000089584B58F7702C084B58F7D84BD089515
:101A10008091B0008F7703C08091B0008F7D80935C
:101A2000B00008951F93CF93DF93282F30E0F90182
:101A3000E456F84F8491F901E857F84FD491F90131
:101A4000EC58F84FC491CC23C9F0162F81110E9495
:101A5000E90CEC2FF0E0EE0FFF1FEE58FF4FA591C1
:101A6000B4918FB7F894111105C09C91ED2FE095BA
:101A7000E92302C0EC91ED2BEC938FBFDF91CF9166
:101A80001F910895CF93DF9390E0FC01E857F84F42
:101A90002491FC01EC58F84F8491882361F190E087
:101AA000880F991FFC01E859FF4FC591D491FC01A3
:101AB000EE58FF4FA591B491611109C09FB7F894FA
:101AC0008881209582238883EC912E230BC062307D
:101AD00061F49FB7F8943881822F8095832388839F
:101AE000EC912E2B2C939FBF06C08FB7F894E88102
:101AF0002E2B28838FBFDF91CF9108958E3008F071
:101B00008E508770806480937C0080917A0080641E
:101B100080937A0080917A0086FDFCCF80917800D6
:101B20002091790090E0922B08958F929F92AF922E
:101B3000BF92CF92DF92EF92FF926B017C010E94E5
:101B40002E044B015C01C114D104E104F104F1F055
:101B50000E942E04DC01CB0188199909AA09BB094E
:101B6000883E9340A105B10570F321E0C21AD10867
:101B7000E108F10888EE880E83E0981EA11CB11CD4
:101B8000C114D104E104F10419F7DDCFFF90EF9007
:101B9000DF90CF90BF90AF909F908F9008952FB718
:101BA000F8946091D7057091D8058091D9059091EE
:101BB000DA052FBF08951F920F920FB60F921124CE
:101BC0002F933F938F939F93AF93BF938091D705AC
:101BD0009091D805A091D905B091DA053091D6053C
:101BE00023E0230F2D3720F40196A11DB11D05C060
:101BF00026E8230F0296A11DB11D2093D6058093E0
:101C0000D7059093D805A093D905B093DA058091B4
:101C1000DB059091DC05A091DD05B091DE05019614
:101C2000A11DB11D8093DB059093DC05A093DD051C
:101C3000B093DE05BF91AF919F918F913F912F910E
:101C40000F900FBE0F901F9018951F920F920FB616
:101C50000F9211242F933F934F935F936F937F9332
:101C60008F939F93AF93BF93EF93FF938091B900AE
:101C7000887F803609F49CC068F5883209F45BC01F
:101C800090F4803109F454C038F4882309F4F6C084
:101C9000883009F44DC0F6C0883109F44CC0803258
:101CA00009F45DC0EFC0803409F468C048F48033A3
:101CB00009F455C0883309F0E5C080930306D8C005
:101CC000803509F44FC0883509F45DC0883409F0C7
:101CD000D9C0D6C0883909F4C7C0A8F4883709F438
:101CE00067C038F4883609F463C0803709F460C0EF
:101CF000C9C0883809F4B8C0803909F45FC0803899
:101D000009F0C0C05BC0803B09F486C038F4803A5B
:101D100009F466C0883A09F47FC0B4C0803C09F475
:101D2000A7C0883C09F4A4C0883B09F48AC0AAC0B3
:101D30008091E00510C090910206809101069817ED
:101D400070F5E091020681E08E0F80930206F0E0CC
:101D5000EF51FA4F80818093BB0085EC86C0809361
:101D600003068EC0E091020681E08E0F809302068A
:101D70008091BB00F0E0EF51FA4F80839091020612
:101D8000809101066EC0E091020681E08E0F809383
:101D900002068091BB00F0E0EF51FA4F8083809102
:101DA000040681116DC081E08093DF0584EA61C083
:101DB00083E0809305061092D505CFCF8091D5059D
:101DC000803208F051C0E091D50581E08E0F8093FC
:101DD000D5058091BB00F0E0EB54FA4F8083BDCF76
:101DE00085EC8093BC00109205068091D505803269
:101DF00030F4E091D505F0E0EB54FA4F1082609199
:101E0000D50570E0E091B305F091B40585EB95E060
:101E100009951092D50536C084E08093050610928E
:101E2000B2051092B105E091AF05F091B0050995AA
:101E30008091B105811105C081E08093B1051092B8
:101E40008F05E091B20581E08E0F8093B205F0E03E
:101E5000E157FA4F80818093BB009091B205809149
:101E6000B105981708F479CF85E88093BC000AC0C3
:101E700085EC8093BC001092050604C01092030606
:101E80000E949E0BFF91EF91BF91AF919F918F9117
:101E90007F916F915F914F913F912F910F900FBE66
:101EA0000F901F901895DC011196FA013796AE1726
:101EB000BF07B4F407964F5F5F4F4817590784F484
:101EC000A901495F5F4FCB0101968417950744F440
:101ED000695F7F4F2F5F3F4F81E0261737070CF078
:101EE00080E00895109260058FE390E090930301E5
:101EF000809302018AE090E09093050180930401B1
:101F000081E08093060181E090E09093010180934D
:101F10000001109261050895CF93DF931F92CDB712
:101F2000DEB780911305882349F09091130599231A
:101F300029F089830E94DD108981F7CF0F90DF910E
:101F4000CF9108958091110590911205009769F045
:101F50001CF48FEF9FEF02C081E090E090938E051C
:101F600080938D0580E090E0089580918D0590919B
:101F70008E05009721F010928E0510928D05089520
:101F80002091280690916306213208F04AC0809182
:101F900005068111FCCF32E03093050631E0309325
:101FA00004063FEF309303061092020620930106C9
:101FB000A8E0B6E041EE55E0FA013E2F341B32179F
:101FC00018F43D913193F9CF1092E0052091E0058E
:101FD000990F922B9093E0059091DF05913061F479
:101FE0001092DF059091E0059093BB009091BC00AA
:101FF00093FDF8CF95EC01C095EE9093BC009091C5
:1020000005069230E1F3909103069F3F79F08091AD
:102010000306803241F080910306803331F084E082
:1020200005C081E003C082E001C083E01092070692
:10203000109228061092060608959091560699234C
:1020400039F08EBD00000DB407FEFDCF8EB50895AA
:1020500028E030E040E8E0915906F0915A065081BE
:1020600090916006909595239083E0915706F091AA
:10207000580690915F06542F582319F05081952BE4
:1020800003C05081909595239083E0915906F0917B
:102090005A06508190916006952B90834695215069
:1020A0003109C9F608952F923F925F926F927F9205
:1020B0008F929F92AF92BF92CF92DF92EF92FF9258
:1020C0000F931F93CF93DF9300D000D000D0CDB7F4
:1020D000DEB73C016B015A0179011801C90107966D
:1020E00097FD07969C0193E0359527959A95E1F722
:1020F0003A832983812C912C00E010E0021513050E
:102100000CF043C01E821D82D801AC0DBD1DBC83E6
:10211000AB83ED81FE81EE15FF0584F58D819E81F7
:1021200087709927892B11F0550C0EC0ED81FE8127
:10213000F7FD379683E0F595E7958A95E1F7E80D89
:10214000F91DEA0DFB1D549057FE12C0E0913506B3
:10215000F09136060480F581E02D21E030E04B81DE
:102160005C816D817E81660D771D85E396E0099522
:102170008D819E8101969E838D83CBCF0F5F1F4FF4
:1021800029813A81820E931EB9CF26960FB6F89414
:10219000DEBF0FBECDBFDF91CF911F910F91FF909A
:1021A000EF90DF90CF90BF90AF909F908F907F90F7
:1021B0006F905F903F902F900895CF93DF93809121
:1021C00009050E947E0D925060910C0570E00E94FE
:1021D000F41C7093100560930F0580910A050E940E
:1021E0007E0D925060910C0570E00E94F41C70937B
:1021F00012056093110580910F0590911005181636
:10220000190644F420910D0530910E0582179307AD
:1022100068F010C0009771F020910D0530910E0507
:102220003195219531092817390720F410921005AE
:1022300010920F051616170644F480910D05909123
:102240000E056817790770F011C06115710571F0FE
:1022500080910D0590910E059195819591098617B4
:10226000970720F4109212051092110520910B058A
:1022700030E0F901E456F84F8491F901E857F84F3E
:10228000D491F901EC58F84FC491CC23A1F08111FD
:102290000E94E90CEC2FF0E0EE0FFF1FE659F84F1B
:1022A000A591B491EC91ED2331E020E009F430E008
:1022B000832F922F02C080E090E021E0822781707E
:1022C00080931305DF91CF910895CF93C82F80910C
:1022D00051068F3F59F1E0915B06F0915C068081D9
:1022E00090916106982B9083E0915D06F0915E06D7
:1022F000208190916206909592239083E0915B06F5
:10230000F0915C06208190916106909592239083D4
:102310008C2F0E941D10E0915B06F0915C0690816D
:1023200080916106892B8083CF91089580914F061B
:1023300091E0909306068093630610920706109230
:10234000280660E089E296E00E94260C6C2F89E264
:1023500096E00E94260CCF910C94C00FEF92FF9252
:102360000F931F93CF93DF9381E20E94651180E06A
:102370000E9465118FE70E94651182E20E9465113B
:1023800080E00E94651187E00E94651180915106EE
:102390008F3F79F1E0915B06F0915C06908180912E
:1023A0006106892B8083E0915D06F0915E06908145
:1023B00080916206892B8083E0915B06F0915C0638
:1023C000908180916106809589238083C9E0D1E066
:1023D00089910E941D1085E0C930D807C9F7E091A6
:1023E0005B06F0915C06908180916106892B808369
:1023F00030C0F090B8008CE08093B800C9E0D1E024
:10240000EE24E39480914F06E092060680936306E3
:10241000109207061092280660E489E296E00E9476
:10242000260C00E010E0FE01E00FF11F608189E260
:1024300096E00E94260C0F5F1F4F0031110599F79F
:102440000E94C00F609685E0C930D807D9F6F09297
:10245000B800DF91CF911F910F91FF90EF900895F9
:102460000F931F93CF93DF938C01C0E0D0E0F8016E
:10247000EC0FFD1F6491662371F0E0913506F09139
:1024800036060190F081E02D85E396E00995892BD1
:1024900011F02196ECCFCE01DF91CF911F910F91DA
:1024A0000895FC01448155816081718185E396E046
:1024B0000C940304CF93DF93CDB7DEB7A0970FB68C
:1024C000F894DEBF0FBECDBF789484B5826084BD22
:1024D00084B5816084BD85B5826085BD85B5816028
:1024E00085BD80916E00816080936E0010928100A6
:1024F0008091810082608093810080918100816061
:102500008093810080918000816080938000809121
:10251000B10084608093B1008091B00081608093AD
:10252000B00080917A00846080937A0080917A0074
:10253000826080937A0080917A00816080937A0033
:1025400080917A00806880937A001092C100F99996
:10255000FECF80E090E00E94BF1F9093850580939E
:10256000840585E10E947E0DBC01990F880B990BB3
:10257000611571058105910511F00E94811F82E0AE
:10258000809350068CE380934F06809151068F3FD5
:1025900009F4BDC061E0809153060E94420D61E0E4
:1025A000809155060E94420D80915506082E000C20
:1025B000990BFC01EC58F84FE491F0E0EE0FFF1F8F
:1025C000EE58FF4F2591349130935C0620935B06C3
:1025D000FC01E857F84FE491E093610680915306BF
:1025E000082E000C990BFC01EC58F84FE491F0E038
:1025F000EE0FFF1FEE58FF4F2591349130935E068A
:1026000020935D06FC01E857F84FE491E0936206E1
:102610008091560681113EC061E0809151060E9472
:10262000420D61E0809152060E94420D8091520657
:10263000082E000C990BFC01EC58F84FE491F0E0E7
:10264000EE0FFF1FEE58FF4F2591349130935A063D
:1026500020935906FC01E857F84FE491E093600697
:1026600080915106082E000C990BFC01EC58F84F94
:10267000E491F0E0EE0FFF1FEE58FF4F25913491EB
:102680003093580620935706FC01E857F84FE49121
:10269000E0935F0680915606882309F45FC01FB758
:1026A000F89480916205811127C0EEE7F7E08491EC
:1026B000E2E9F7E09491E82FF0E0EE0FFF1FE85910
:1026C000FF4FA591B491EC91E92321F461E08AE0F8
:1026D0000E94120D61E08AE00E94420D8CB580617B
:1026E0008CBD8CB580648CBD61E08DE00E94420D94
:1026F00061E08BE00E94420D809162058F5F8093C4
:1027000062051FBF80E58CBD81E08DBD27C01092A2
:102710005F0510925E05109207061092280610922F
:10272000050681E0809304061092DF0561E082E1F6
:102730000E94120D61E083E10E94120D8091B900A8
:102740008E7F8093B9008091B9008D7F8093B9000E
:1027500088E48093B80085E48093BC00809154069F
:1027600087FD1EC061E00E94420D61E08091540629
:102770000E94120D61E070E080E090E00E94950DF3
:1027800060E0809154060E94120D6AE070E080E0E3
:1027900090E00E94950D61E0809154060E94120D18
:1027A0008EEA0E94651185ED0E94651180E80E9405
:1027B000651188EA0E9465118FE30E94651183ED1F
:1027C0000E94651180E00E94651180E40E946511FD
:1027D0008DE80E94651184E10E94651180E20E94EB
:1027E000651180E00E94651181EA0E94651188EC04
:1027F0000E9465118AED0E94651182E10E946511B7
:1028000081E80E9465118FEC0E94651189ED0E949C
:10281000651181EF0E9465118BED0E94651180E4C6
:102820000E94651184EA0E94651186EA0E94651182
:102830008EE20E9465118FEA0E9465110E94AE111E
:102840008FE0809309058EE080930A0582E08093F3
:102850000B0560E08FE00E94420D60E080910A0568
:102860000E94420D62E080910B050E94420D80E2C1
:1028700090E090930E0580930D050E948C0F8111BE
:1028800003C00E94DD10F9CF81E090E090934806EC
:1028900080934706909346068093450611E0109377
:1028A000490610924B0680E094E0E9E0F1E0DF0198
:1028B0009C011D9221503040E1F786EA0E9465118B
:1028C000109207011092060189E490E090930501AF
:1028D00080930401109287051092860510930801D9
:1028E00082E0482E512C0E94CF0D00918905109155
:1028F0008A0520918B0530918C05DC01CB01801B72
:10290000910BA20BB30B85369105A105B10580F0A3
:102910000E94CF0D6093890570938A0580938B0583
:1029200090938C059091880581E089278093880594
:102930008091670590916805009771F001979093D9
:1029400068058093670580918205909183050196C3
:1029500090938305809382050E94CF0D00916305BB
:10296000109164052091650530916605DC01CB016D
:10297000801B910BA20BB30B893E9340A105B105BF
:1029800008F47EC00E94CF0D6093630570936405C8
:1029900080936505909366050E947C1F24E030E0DB
:1029A00040E050E00E94E81F8091820590918305ED
:1029B000853F41E0940730F0893E934030F004E0D9
:1029C000F02E05C012E0F12E02C0B3E0FB2E74E041
:1029D000679F80011124F801E059FA4F808181112D
:1029E0004FC00E947C1F22E030E040E050E00E9497
:1029F000E81F672B682B692B19F0EE24E39402C0C3
:102A0000A1E1EA2E0E947C1F22E030E040E050E08D
:102A10000E94E81F672B682B692B11F080E001C032
:102A200080E2E82A0E947C1F22E030E040E050E093
:102A30000E94E81F672B682B692B11F080E001C012
:102A400080E48E29F801E059FA4F80839FEF9F0DB3
:102A50009183913011F4826005C0923011F4866048
:102A600001C08E608083F801E059FA4F808185FDB6
:102A700002C080E301C080EDF801E059FA4F828383
:102A800080916E0590916F050097A1F0880F991FB6
:102A900020916C0530916D05820F931F90936D0509
:102AA00080936C050A968539910520F010926F0588
:102AB00010926E05809106010091040110910501AC
:102AC000882309F4F3C00A30110541F48091000114
:102AD000909101018F3F934008F48DC00E94DD105A
:102AE00020910F0530911005809102019091030112
:102AF0001216130644F40196909303018093020189
:102B0000109269050AC0232B41F0019790930301AD
:102B10008093020181E08093690580911105909175
:102B20001205181619061CF40150110904C0892B4E
:102B300031F00F5F1F4F1093050100930401809146
:102B40000401909105010A9734F48AE090E0909393
:102B50000501809304018091040190910501CA97B9
:102B600034F089E390E09093050180930401809113
:102B7000020190910301079734F487E090E090936D
:102B80000301809302018091020190910301893732
:102B9000910534F088E790E090930301809302015F
:102BA00080911305882339F180916E0590916F050E
:102BB000892B09F580910401909105018A309105D6
:102BC000D1F0209102013091030130936D052093E3
:102BD0006C05019690936B0580936A058091690559
:102BE000882319F08FEF9FEF02C081E090E090936F
:102BF0006F0580936E0580910001909101012091F5
:102C0000040130910501009741F02B3031052CF083
:102C1000019790930101809300012A30310569F4F6
:102C200080910001909101018F3FB3E09B0728F450
:102C3000449690930101809300018091000190914E
:102C400001018115944030F08FEF93E090930101E2
:102C5000809300018091000190910101892B11F472
:102C6000109206012A30310509F061C020916105FA
:102C7000222309F45CC0253049F4809167059091C6
:102C80006805C296909368058093670580916705F3
:102C900090916805F9E12F9F800D911D112490936B
:102CA0006805809367051092610541C00F5F1F4F53
:102CB000109305010093040107341105C4F18091BC
:102CC0000701882331F08150809307010E94720F21
:102CD0002EC080910801811124C060916705709118
:102CE00068058091820590918305680F791F709324
:102CF00083056093820510926805109267058091A4
:102D00008405909185058617970740F47093850593
:102D10006093840580E090E00E94C51F82E080936C
:102D2000080187E490E0909305018093040180E01E
:102D300094E0E9E0F1E0DF019C011D922150304078
:102D4000E1F780910701811105C080910601882378
:102D500009F47FC010924206109241061092440678
:102D60001092430660918205709183054AE0CE017E
:102D700007960E94B10C1E861D86188A1F861A8A25
:102D8000198A46E050E066E575E0CE010D960E9496
:102D9000900C8B859C85EF80F88409891A89E11451
:102DA000F10409F498C50097A9F0080F191FB8019C
:102DB000CE010D960E94570C882309F48CC52D85F1
:102DC0003E8589899A89B701820F931F0E94271F28
:102DD0001A8B098B1A8219821C821B821E821D8209
:102DE0006D857E856115710531F049895A89CE015D
:102DF00001960E94900CCE0101960E945112898189
:102E00009A810E94B71D8D859E850E94B71D8F8176
:102E100098850E94B71DE8E7AE2EB12CC12CD12CAD
:102E20008091070190E0C816D9060CF04CC005E06F
:102E300010E028E030E04BEA51E060E070E0C501CE
:102E40000E9453103FEFC31AD30A4AE0A41AB108F4
:102E5000E7CF80910801843041F5209180053091C1
:102E6000810586E190E0253A56E0350710F4821B93
:102E7000930B909342068093410610924406109261
:102E8000430684E990E00E94301280918005909181
:102E90008105019690938105809380058930974044
:102EA00090F081E0809308010EC086E190E090935D
:102EB000420680934106109244061092430685E82C
:102EC00090E00E9430128091070181111CC0809116
:102ED0000601811118C0EE24E394F12C0AE010E001
:102EE0002FE730E04AE050E060E070E085E396E0F4
:102EF0000E94F40A80918205909183058C3D954053
:102F000008F475C078C003E010E02BE030E04FE734
:102F100050E06DE370E080E090E00E9453106CE0C0
:102F2000E62EF12C03E010E028E030E04CE750E022
:102F30006DE370E0C7010E94531088E0E80EF11CB9
:102F40009CE4E916F10471F7809188052091000155
:102F500030910101811104C02F3F310599F090F0AB
:102F600044E0369527954A95E1F7EE24E394F12C59
:102F700003E010E04DE350E06CE070E085E396E0A4
:102F80000E94430A2DE7C22ED12CA12CB12C809196
:102F90006105282F30E0EE24E394F12C03E010E0EB
:102FA000A216B30684F423E030E04DE350E0B6010E
:102FB000853021F48091880581110AC085E396E06F
:102FC0000E94430A09C023E030E04DE350E0B6011F
:102FD00085E396E00E94A50AAFEFAA1ABA0AB4E008
:102FE000CB1AD108E5E0AE16B10489F674CF809112
:102FF0000801813091F58091600500ECE02EF12C04
:1030000008E010E028E030E04BED51E065E070E0D2
:10301000D701A81BB109CD010E94531020910201D4
:103020003091030180916005E81AF108A90144502C
:103030005109E416F50674F02C5F3F4F2E153F053D
:103040004CF020910401309105012A30310511F432
:10305000109206018F5F80936005B0E7CB2EB5E03C
:10306000DB2EE2E7F5E0FE8BED8B23E735E03C8BD2
:103070002B8B46E150E05A8F498F1FE0A12EB12CD7
:10308000D6018C9180FF85C185FD04C0882483947E
:10309000912C03C088248A94982CED89FE89808124
:1030A000880D808381508E3FC0F495012E5F3F4F85
:1030B0003E8F2D8F24EFA4012403B001259F700DB6
:1030C00011247C8F6B8F212C312CE12CF12C8B89DE
:1030D0009C89029798A38F8F1AC0D6011C9259C160
:1030E000E2E0F0E00E2C02C0EE0FFF1F0A94E2F7C0
:1030F000F88FEF8B282F30E02E233F23232B89F4EA
:10310000FFEFEF1AFF0A2B8D3C8D220E331EAF8D81
:10311000B8A12C9130E0F6018081E216F30604F3A9
:10312000B4C0AD89BE896C90712CB4E46B1A71087F
:10313000620C731C87FD3CC086FF3AC0209182055B
:1031400030918305243F314098F120910401309162
:103150000501A216B30664F5498D5A8D421753072F
:103160003CF12091020130910301621673062CF4A8
:1031700051E08516910441F01BC026153705C4F4B3
:103180006FEF86169606A1F4982F9068D6019C934F
:1031900082FD04C0EB89FC89108204C0ECE0AB899D
:1031A000BC89EC9381FF04C0E8E1AB89BC89EC9356
:1031B000D6018C9186FF0AC0BFEF8B169B0619F0D3
:1031C00043ED51E00CC04BED51E009C0EFEF8E161E
:1031D0009E0619F043EC51E002C04BEC51E008E0D0
:1031E00010E028E030E0B501C3010E945310809147
:1031F0006E0590916F05892B81F180916A05909100
:103200006B0520916C0530916D05A3014E5F5F4FFA
:103210002417350714F14B5F5F4F42175307ECF04B
:103220002D8D3E8D82179307C4F0498D5A8D481716
:1032300059079CF080916705909168050A969093D4
:1032400068058093670510926F0510926E05D60190
:103250008C91BF898B27F6018083209104013091E6
:10326000050124503109409102015091030144505D
:103270005109B501C3010E94530F882309F440CFBF
:103280008091060181112CC33BCF87FF46C0AB89DB
:10329000BC899C91ED89FE89208130E0235431095D
:1032A00048EEB40146033001479F700C1124260DEF
:1032B000371D989D3001999D700C1124620E731E6C
:1032C00020910401309105014091020150910301C8
:1032D000BA0163507109661677060CF404C34E5F99
:1032E0005F4F461557050CF4FEC2A5014C5F5F4FBA
:1032F000B90162507109461757070CF4F4C22D5FEB
:103300003F4F241735070CF4EEC210920601AB892B
:10331000BC891C928058F6018083D6018C9184FF71
:1033200038C0ED89FE89808190E0845491092CE0B9
:10333000289D7001299DF00C1124E80EF91E8920AA
:10334000809419F043EB51E002C04BEB51E008E0F0
:1033500010E028E030E0B501C7010E945310209131
:10336000040130910501245031094091020150912E
:10337000030144505109B501C7010E94530F88232E
:1033800041F080916105853020F490910601911102
:10339000DCC224E0C20ED11C3CE0A30EB11C4D895E
:1033A0005E894C5F5F4F5E8B4D8B6B897C896C5F58
:1033B0007F4F7C8B6B8B898D9A8D0C969A8F898F22
:1033C0009FE3A916B10409F05BCE80916E05909140
:1033D0006F05892BA9F060916C0570916D05409186
:1033E0006A0550916B059B012E5F3F4F625071093A
:1033F000EE24E394F12C8A0185E396E00E94F40A1E
:1034000020910601609104017091050180910201F3
:1034100090910301211109C06450710900E110E08D
:1034200028E030E043E052E011C02091690564508B
:10343000710907E010E0211105C02BE030E043EFF7
:1034400051E004C02BE030E043EE51E005970E94CC
:10345000531080910801823009F4C5C018F48130FE
:1034600041F02FC2833009F450C1843009F41CC2EA
:1034700028C20E94DD100E94A20F20918605309183
:103480008705D901A81BB90BB7FD05C0B093870507
:10349000A093860504C0109287051092860580913E
:1034A000860590918705039724F0509287054092F6
:1034B00086050E948C0F882361F18091860590918A
:1034C00087050097A1F41092080183E0809307011B
:1034D0001092830510928205109270051092740567
:1034E0001092780510927C050E94720F12C08130F4
:1034F000910511F483E00BC0029759F410928705EF
:1035000010928605109281051092800584E08093C8
:103510000801E12CF12C04E210E020E530E043E169
:1035200050E068E170E085E396E00E94430AEE24F3
:10353000E394F12C20E530E043E150E068E170E0F5
:1035400085E396E00E94A50A809186059091870503
:103550002BE0289FA001299F500D11244B5E5F4F47
:103560000AE010E02CE430E06AE170E085E396E0E8
:103570000E94430A509248064092470650924606DF
:103580004092450683E290E0909342068093410684
:1035900086E190E0909344068093430682E292E0B5
:1035A0000E9430128AE290E0909342068093410696
:1035B00081E290E0909344068093430689E192E093
:1035C0000E94301282E390E090934206809341067D
:1035D0008CE290E0909344068093430683E192E06E
:1035E0000E94301287C00E94DD100E948C0F882339
:1035F00039F081E0809308011092870510928605CA
:10360000E12CF12C04E210E020E530E043E150E051
:1036100068E170E085E396E00E94430AEE24E394BB
:10362000F12C20E530E043E150E068E170E085E313
:1036300096E00E94A50A0AE010E02CE430E045E1A3
:1036400050E06AE170E085E396E00E94430A509200
:10365000480640924706509246064092450686E24A
:1036600090E0909342068093410686E190E090932B
:1036700044068093430682E492E00E9430128CE17B
:1036800090E0909342068093410681E290E090930F
:1036900044068093430620918205309183058091F2
:1036A0008405909185052817390718F084E392E086
:1036B00002C08DE292E00E9430128CE190E0909383
:1036C0004206809341068CE290E0909344068093FA
:1036D000430660918205709183054AE0CE01019610
:1036E0000E94B10CCE0101960E94511289819A81EB
:1036F0000E94B71D81E090E09093480680934706B2
:103700009093460680934506DCC00E94DD100E941F
:10371000A20F2091860530918705F901E81BF90B6E
:10372000F7FD05C0F0938705E093860504C010926D
:1037300087051092860580918605909187050297EE
:1037400034F081E090E09093870580938605E12C2A
:10375000F12C04E210E020E530E043E150E068E1C4
:1037600070E085E396E00E94430AEE24E394F12C96
:1037700020E530E043E150E068E170E085E396E069
:103780000E94A50A809186059091870501962BE0FD
:10379000289FA001299F500D11244B5E5F4F0AE026
:1037A00010E02CE430E06AE170E085E396E00E94EE
:1037B000430A50924806409247065092460640926D
:1037C00045060DE110E0109342060093410686E1A4
:1037D00090E0909344068093430680E692E00E9436
:1037E0003012109342060093410681E290E09093DC
:1037F0004406809343068091860590918705892B26
:1038000029F489E592E00E94301211C0609184058C
:10381000709185054AE0CE0101960E94B10CCE015F
:1038200001960E94511289819A810E94B71D8DE1F3
:1038300090E090934206809341068CE290E0909352
:103840004406809343068CE492E00E94301201E02B
:1038500010E0109348060093470610934606009325
:1038600045060E948C0F882361F180918605909116
:103870008705009751F0019721F510928705109266
:10388000860581E0809308011CC010928505109286
:10389000840560E070E080E090E00E94C51F109316
:1038A0008705009386050DC00E94DD100E948C0FD5
:1038B000882339F081E080930801109287051092E7
:1038C00086050E94AE1180E090E0892B09F40BC8B8
:1038D0000E94000008C8CE010D960E947E0C7ACA94
:1038E000109206010DCC9F5FAB89BC899C9393011C
:1038F0002F5F3F4FB30162507109EE24E394F12C26
:10390000A5014D5F5F4F8A0185E396E00E94F40AAE
:1039100093012E5F3F4FB30161507109A5014B5FC9
:103920005F4F8A0185E396E00E94F40ABAE06B1AC1
:103930007108E1E86E16710408F4EFCCAB89BC891C
:103940001C92F60180818058E7CC8F5F80936105DF
:1039500080916705909168050A9690936805809319
:103960006705D6019C9180E189278C9312CDE9E20D
:10397000F6E01382128288EE93E0A0E0B0E0848348
:103980009583A683B78382E395E091838083E5E303
:10399000F6E01382128220E830E03583248380E44D
:1039A00090E0978386833187208793878287158A63
:1039B000158614861786168681E0848B2FEF3FEFDD
:1039C000338B228B318B208B868B178A118E108E36
:1039D00082E495E0918380838FEF848F80A3868F2C
:1039E000858F84E0878F089597FB072E16F4009447
:1039F00007D077FD09D00E94081D07FC05D03EF4D2
:103A0000909581959F4F0895709561957F4F08958A
:103A1000AA1BBB1B51E107C0AA1FBB1FA617B707F4
:103A200010F0A61BB70B881F991F5A95A9F7809510
:103A30009095BC01CD010895EE0FFF1F0590F49104
:103A4000E02D0994CF93DF938230910510F482E04A
:103A500090E0E0916606F091670620E030E0C0E07B
:103A6000D0E0309711F14081518148175907C0F0DB
:103A70004817590761F482819381209719F09B833D
:103A80008A832BC0909367068093660626C0211513
:103A9000310519F04217530718F49A01BE01DF01EE
:103AA000EF010280F381E02DDCCF2115310509F112
:103AB000281B390B2430310590F412968D919C917E
:103AC00013976115710521F0FB019383828304C074
:103AD0009093670680936606FD01329644C0FD010F
:103AE000E20FF31F81939193225031092D933C9360
:103AF0003AC02091640630916506232B41F4209151
:103B000016053091170530936506209364062091C1
:103B10001405309115052115310541F42DB73EB737
:103B20004091180550911905241B350BE09164064E
:103B3000F0916506E217F307A0F42E1B3F0B281740
:103B4000390778F0AC014E5F5F4F2417350748F016
:103B50004E0F5F1F509365064093640681939193C7
:103B600002C0E0E0F0E0CF01DF91CF9108950F9324
:103B70001F93CF93DF93009709F48CC0FC01329719
:103B800013821282009166061091670601151105D5
:103B900081F420813181820F931F2091640630913E
:103BA00065062817390779F5F0936506E0936406F2
:103BB00071C0D80140E050E0AE17BF0750F4129634
:103BC0002D913C911397AD012115310509F1D901D2
:103BD000F3CF9D01DA013383228360817181860FE7
:103BE000971F8217930769F4EC0128813981260F0A
:103BF000371F2E5F3F4F318320838A819B819383C0
:103C00008283452B29F4F0936706E093660642C051
:103C10001396FC93EE931297ED01499159919E01F1
:103C2000240F351FE217F30771F480819181840F0F
:103C3000951F029611969C938E9382819381139681
:103C40009C938E931297E0E0F0E0D80112968D914C
:103C50009C911397009719F0F8018C01F6CF8D9184
:103C60009C9198012E5F3F4F820F931F2091640615
:103C7000309165062817390769F4309729F41092B6
:103C800067061092660602C01382128210936506C0
:103C900000936406DF91CF911F910F910895A0E0EA
:103CA000B0E0E5E5FEE10C941E20EC01009721F464
:103CB000CB010E94221DB8C0FC01E60FF71F9C013A
:103CC00022503109E217F30708F4ACC0D9010D9175
:103CD0001C91119706171707B0F00530110508F46D
:103CE0009FC0C80104978617970708F499C002502F
:103CF0001109061B170B019311936D937C93CF0150
:103D00000E94B71D8DC05B01A01AB10A4C01800E44
:103D1000911EA0916606B091670640E050E0E12C4C
:103D2000F12C109709F44AC0A815B905D1F56D908A
:103D30007C901197630182E0C80ED11CCA14DB0489
:103D400080F1A3014A195B096A0182E0C80ED11C07
:103D50001296BC9012971396AC91B5E0CB16D10495
:103D600040F0B282A38351834083D9016D937C9349
:103D70000AC00E5F1F4FC301800F911FF90191838D
:103D80008083EB2DFA2FE114F10431F0D701139663
:103D9000FC93EE93129744C0F0936706E093660697
:103DA0003FC08D919C9111974817590708F4AC01B9
:103DB0007D0112960D90BC91A02DB3CF8091640629
:103DC0009091650688159905E1F446175707C8F4E0
:103DD0008091140590911505009741F48DB79EB719
:103DE0004091180550911905841B950BE817F907A8
:103DF000C8F4F0936506E0936406F901718360836B
:103E00000FC0CB010E94221D7C01009759F0A80130
:103E1000BE010E941E1FCE010E94B71DC70104C033
:103E2000CE0102C080E090E0CDB7DEB7EEE00C94AA
:103E30003A2081E090E0F8940C948220FB01DC01B0
:103E400002C001900D9241505040D8F70895FB01F7
:103E5000DC0101900D920020E1F708958F929F926E
:103E6000AF92BF92CF92DF92EF92FF92CF93DF9308
:103E7000EC01688179818A819B81611571058105D9
:103E8000910521F464E279ED8BE597E02DE133EFC4
:103E900041E050E00E94E81F49015A019B01AC013A
:103EA000A7EAB1E40E9407206B017C01ACEEB4EFFD
:103EB000A50194010E941520DC01CB018C0D9D1DF4
:103EC000AE1DBF1DB7FF03C00197A109B04888838D
:103ED0009983AA83BB83BC01CD019F77DF91CF91EA
:103EE000FF90EF90DF90CF90BF90AF909F908F901A
:103EF00008950E942E1F08958AE195E00E942E1FCA
:103F0000089560931A0570931B0580931C05909388
:103F10001D0508954532510520F4423010F00C94EF
:103F2000951FFB011082CB010895BB27FB0155278C
:103F3000AA27880F991FAA1FA41710F0A41B839506
:103F40005051B9F7A05DAA3308F0A95DA19300977D
:103F500079F7B111B1931192CB010C94AF1FDC0131
:103F6000FC01672F71917723E1F7329704C07C91B0
:103F70006D9370836291AE17BF07C8F30895A8E1EF
:103F8000B0E042E050E00C94CC1F0E94DA1F272FD3
:103F90000C94DB1FDC01CB01FC01F999FECF06C0BC
:103FA000F2BDE1BDF89A319600B40D9241505040F7
:103FB000B8F70895262FF999FECF1FBA92BD81BD9B
:103FC00020BD0FB6F894FA9AF99A0FBE019608959B
:103FD000052E97FB1EF400940E94FF1F57FD07D08B
:103FE0000E94512007FC03D04EF40C94FF1F509503
:103FF0004095309521953F4F4F4F5F4F08959095D5
:104000008095709561957F4F8F4F9F4F08950E94C7
:104010007320A59F900DB49F900DA49F800D911DBE
:1040200011240895B7FF0C9407200E940720821BDB
:10403000930B08952F923F924F925F926F927F92CF
:104040008F929F92AF92BF92CF92DF92EF92FF92A8
:104050000F931F93CF93DF93CDB7DEB7CA1BDB0B54
:104060000FB6F894DEBF0FBECDBF09942A883988F9
:1040700048885F846E847D848C849B84AA84B98400
:10408000C884DF80EE80FD800C811B81AA81B9810C
:10409000CE0FD11D0FB6F894DEBF0FBECDBFED0120
:1040A0000895A1E21A2EAA1BBB1BFD010DC0AA1F79
:1040B000BB1FEE1FFF1FA217B307E407F50720F091
:1040C000A21BB30BE40BF50B661F771F881F991F0C
:1040D0001A9469F760957095809590959B01AC0155
:1040E000BD01CF010895A29FB001B39FC001A39F5E
:1040F000700D811D1124911DB29F700D811D112421
:08410000911D0895F894FFCF12
:1041080001003F000A000103010000000000000058
:104118000000000000000000000000000000000097
:104128000000000000000000000000000000000087
:10413800FE00F00080000000000000000000000009
:10414800000000000000000000E010101010200027
:10415800F000000000F000F010101010E000F02057
:1041680040804020F0008040201020408000F01067
:10417800101010E00010F01000F000000000F00037
:10418800F0101010100000000000000000000000F7
:10419800F8F0C080808080808080000000000000EF
:1041A8000000000000000000000000000000008087
:1041B800FF40FF40FF40808000000000000000003A
:1041C80000000000000000000008111111110E008D
:1041D8000F101010100F001F111111110E001F00E9
:1041E800000000001F805F4444448404DF001F0275
:1041F80002C202DD40505F50009F414244489F0088
:104208005F51D1505000000000000008080C0C0F4E
:104218000F7FFD7BFDFAF7EA9DEA55AB55833532F2
:10422800326264C4C4848808101010204040FFFF24
:10423800FFBEBE7C7DFCFAF8E9E1EA22341418F0EE
:104248000000000000000000000000000000000066
:104258000000000000000000000000000000000056
:1042680000000000003F404050205F003F404040B9
:10427800403F007F444440400023444444443800C5
:1042880000007F00000000000000000000000000A7
:104298000000000000010307070F1F3F7FFEFDFA23
:1042A800FDEAF4E8F4E9B1E342A646840C88191B58
:1042B80037276F7FDFFEBEFD7DFFFF984000807FC0
:1042C80030202040C0808000000000000000000076
:1042D80000000000000000000000000000000000D6
:1042E80000000000000000000000000000000000C6
:1042F80000000000000000000000000000000000B6
:1043080000000000000000000000000000000000A5
:104318000000000000000000000000000000000194
:10432800010303070F0F1F1F3F3F7FFEFDFEFDFA2E
:10433800F4F8F4E8D0E0D1A1438346860D0E1A1AAA
:10434800343038224241E0812A428C448848101097
:1043580020204080800000000000000000000000D5
:104368000000000000000000000000000000000045
:104378000000000000000000000000000000000035
:104388000000000000000000000000000000000025
:104398000000000000000000000000000000000015
:1043A8000000000000000000000000000001010300
:1043B8000307070F1F1F1F3F7F7FFFFEFDFEFDFE48
:1043C800F4F8F4E8D0E0D0A14180428001810206EF
:1043D800060C5CBCFCF9F9F6ECD4E8D8B050A04067
:1043E8008000000000000000000000000000000045
:1043F80000000000000000000000000000000000B5
:1044080000000000000000000000000000000000A4
:104418000000000000000000000000000000000094
:104428000000000000000000000000000000000084
:10443800000000000000000000000000010303036A
:10444800070F0F1F1F3F3F7F7FFEFFFEFDFEFFFA96
:10445800F4E8F4E8D0A0C0A1438B478F0F8F0FBFBB
:104468001EAD5AB458E00000000000000000000033
:104478000000000000000000000000000000000034
:104488000000000000000000000000000000000024
:104498000000000000000000000000000000000014
:1044A8000000000000000000000000000000000004
:1044B80000000000000000000000000000000000F4
:1044C80000000000000000000000010101030707D0
:1044D800070F0F1F1F1F3F3F7F7F7F7E7F7E7F7EDF
:1044E8007D7E3F1F0F070000000000000000000055
:1044F80000000000000000000000000000000000B4
:104508000000000000000000000E0F02080A000072
:1045180000000000000068068000010000000001A3
:1045280003070F1F3F7F0080C0E0F0F8FCFE00008B
:104538000000260CF60BEE0BDF0BD10BD00B0000A6
:1045480000004E0903040907F40A5304AD05A50A3F
:0E455800430A250AA70753636F72653A0000F5
:00000001FF
